:020000040800F2
:1000000000000220117201088D3400088F340008AE
:100010009134000893340008953400080000000073
:1000200000000000000000000000000097340008FD
:1000300099340008000000009B3400089D3400083B
:100040006172010861720108617201086172010840
:100050006172010861720108617201086172010830
:100060006172010861720108617201086172010820
:100070006172010861720108617201086172010810
:10008000617201086172010861720108A5340008FB
:10009000B5340008C5340008D53400086172010881
:1000A00061720108617201086172010861720108E0
:1000B00061720108617201086172010861720108D0
:1000C00061720108617201086172010861720108C0
:1000D00061720108E5340008F53400086172010816
:1000E00061720108617201086172010861720108A0
:1000F0006172010861720108617201086172010890
:100100006172010805350008617201086172010819
:10011000617201086172010861720108617201086F
:1001200061720108617201086172010815350008E9
:10013000617201082535000835350008453500088D
:100140005535000865350008753500088535000807
:10015000617201086172010861720108617201082F
:10016000617201086172010895350008A535000823
:1001700061720108B53500086172010800000000D5
:080180006172010861720108BF
:1001C0000348044B834202D0034B03B118477047E6
:1001D000B0010020B0010020000000000548064BDF
:1001E0001B1AD90F01EBA301491002D0034B03B135
:1001F00018477047B0010020B00100200000000047
:1002000010B5064C237843B9FFF7DAFF044B13B15E
:100210000448AFF300800123237010BDB00100201B
:10022000000000006472010808B5044B1BB10449CA
:100230000448AFF30080BDE80840CFE700000000AD
:10024000B40100206472010838B5124B1D682A6B96
:1002500004461AB10023C2E9044338BD182000F057
:100260006DFE0246286378B101200021C2E9040135
:10027000094B0A480A499160C2E900030B239381A4
:100280000023C2E9044338BD064B0748462100F06D
:10029000D9F800BF0C00002034126DE60E33CDAB50
:1002A000ECDE050038990108509901081C4B10B587
:1002B0001C68226B8AB113691A4954691A4803FBF6
:1002C00001F100FB0411A3FB0030013341EB0001FD
:1002D000C2E9043121F0004010BD182000F02EFECC
:1002E0000246206388B1114C114B0E4811499160B0
:1002F0009FED097BC2E900430B2393810E4B01461E
:1003000082ED047BC2E9043110BD0C4B0C48522134
:1003100000F098F8AFF3008001000000000000003A
:100320000C0000202DF451582D7F954C0E33CDAB91
:1003300034126DE6ECDE05002E7F954C38990108ED
:100340005099010888420ED98B1883420BD900EBD3
:10035000020C002A6ED0624613F801CD02F801CDDE
:100360009942F9D170470F2A0FD8034602F1FF3C9A
:10037000002A5FD00CF1010C013B8C4411F8012BD9
:1003800003F8012F6145F9D1704740EA01039B074B
:1003900051D1A2F1100370B501F1200C23F00F052B
:1003A00001F1100E00F11004AC441B095EF8105C62
:1003B00044F8105C5EF80C5C44F80C5C5EF8085C79
:1003C00044F8085C5EF8045C44F8045C0EF1100E1E
:1003D000E64504F11004E9D1013312F00C0F01EBF2
:1003E000031102F00F0400EB031328D0043C24F0A7
:1003F00003064FEA940C1E441C1F8E465EF8045BF5
:1004000044F8045FB442F9D10CF1010402F0030294
:1004100003EB840301EB840102F1FF3C4AB10CF1D0
:10042000010C013B8C4411F8012B03F8012F6145AD
:10043000F9D170BD704702F1FF3C03469AE72246AE
:10044000EAE700BF00B50B4C25681446EE681A4673
:1004500085B003460D464CB107490095CDE901141E
:100460003046064900F088FD00F01CFA04490C46AD
:10047000F3E700BF0C0000207C9901088C9901086B
:10048000CC73010808B513460022FFF7DBFF00BF5D
:1004900070B50F4B0F4DAB42A3EB050607D0B6105E
:1004A000002455F8043B01349847A642F9D816F0C9
:1004B000D9FE094D094B5E1BAB424FEAA60606D09A
:1004C000002455F8043B01349847A642F9D870BD82
:1004D000809B0108809B0108809B0108849B010888
:1004E000036A2DE9F041846880460E46002B3BD01C
:1004F000A3891B0717D52369ABB1013EA36816F882
:10050000015F013BA360EDB1002B07DAA7699F42B1
:1005100022462946404610DC0A2D0ED023685A1C7C
:1005200022601D70EAE72146404600F097FA002855
:10053000E3D04FF0FF30BDE8F08100F08DFC0130DA
:10054000DCD1F6E7002B09DA22460A21404600F00A
:1005500083FC0130EDD00A20BDE8F08123680A2237
:10056000591C21601A70F6E700F074F9C0E700BF6B
:10057000024B01461868FFF7B3BF00BF0C00002014
:10058000830730B547D0541E002A3ED0CAB2034676
:1005900001E0013C39D303F8012B9D07F9D1032C6D
:1005A0002CD9CDB205EB05250F2C05EB054535D92A
:1005B000A4F1100222F00F0C03F1100EE6444FEAF2
:1005C000121C1A46C2E90055C2E9025510327245A2
:1005D000F8D10CF1010214F00C0F03EB021204F03D
:1005E0000F0C13D0ACF1040323F0030304331344C2
:1005F00042F8045B9342FBD10CF003042CB1C9B266
:100600001C4403F8011BA342FBD130BD64461346D2
:10061000002CF4D1F9E703461446C0E71A46A44675
:10062000E0E700BF032A30B415D941EA0004A4076B
:1006300084460B4604D0541E0FE0043A032A08D91E
:100640001946604653F8044B5CF8045BA542F4D0AD
:10065000F1E760461946541E7AB1431E013902196A
:1006600001E09A4209D013F8010F11F801CF60455B
:10067000F7D0A0EB0C0030BC7047002030BC7047B6
:1006800000207047024A0349034800F035BC00BF10
:1006900000000020D9090008100000200C4B416820
:1006A000994210B5044601D000F096F9A168094BB3
:1006B000994202D0204600F08FF9E168064B99423A
:1006C00004D02046BDE8104000F086B910BD00BF40
:1006D000CC010020340200209C0200200020704742
:1006E0002DE9F8432A4C2B49DFF8BC90DFF8BC8099
:1006F000294FC4F83811002504230822294604F1A3
:100700005C00264EE360C4E90055C4E90455A560C9
:100710006566A561FFF734FF214B63670822294610
:1007200004F1C400C4E90849C4E90A87C4E91A55B8
:10073000C4E91E552567C4F8CC50C4F88050266320
:10074000FFF71EFF174BC4F8DC30294604F168039D
:10075000082204F59670C4F88830C4E92398C4E9E7
:100760002576C4E93455C4E93855C4F8D850C4F8DE
:100770003451C4F8E850FFF703FF04F1D003C4E993
:100780003D98C4E93F76C4F8F030BDE8F88300BF77
:10079000CC01002085060008151900083919000849
:1007A0000900010012000200AD180008D518000869
:1007B000F8B5254BD3F838310646002B3CD0234FF3
:1007C000D7E90134013B04D51DE05A1C04F168044B
:1007D00019D0B4F90C50013B002DF6D11C4BE3604D
:1007E000C4E90155C4E9045565662560A561082280
:1007F000294604F15C00FFF7C3FEC4E90D55C4E9C6
:1008000012552046F8BD3D680DB12F46D8E74FF48C
:10081000D671304600F0A8F9044680B10423C0E93F
:1008200000530C302946A0604FF4D0722546FFF7E4
:10083000A7FE3C602F46C3E7FFF752FFBFE70C233C
:1008400038603360DDE700BFCC01002000000020ED
:100850000100FFFF036A03B17047044B044AD3F859
:1008600038310262002BF7D13AE700BFCC010020FB
:100870009D060008704700BF704700BF024A034949
:10088000002000F039BB00BF0000002081060008F6
:10089000024A0349002000F02FBB00BF00000020E7
:1008A000DD06000808B5062000F08EFD012001F0ED
:1008B000EDFE00BFB1F90C302DE9F0411E070C46EA
:1008C00080463DD44A68002A56DDE56A002D34D0C2
:1008D0000022D8F80060C8F8002013F48052216A82
:1008E00057D101234046A847451C024666D0B4F9BB
:1008F0000C30E56A216A580705D56368D21A636B24
:100900000BB1236CD21A00234046A847431C42D0A7
:100910000023636023692360A389DF0400D5606539
:10092000616BC8F8006041B104F14403994202D000
:10093000404600F033FA002363630020BDE8F081F5
:100940000E69002EF9D09B070D6808BF4B690E6039
:1009500018BF0023AD1B8B600BE02B463246216A8B
:10096000A76A4046B847B0F1000CA5EB0C056644F9
:1009700006DD002DF1DCE0E70A6C002AA5DCDCE7EF
:10098000B4F90C3043F04003A3814FF0FF30BDE8D1
:10099000F081626DAFE7D8F80010B4F90C301D2972
:1009A000F0D80C4ACA40D507ECD522692260002253
:1009B0006260DA04B4D50029B1D0B1E7D8F80030CC
:1009C000002B94D01D2B01D0162BD9D1C8F8006074
:1009D000B3E700BF010040200B69B3B110B5044676
:1009E00082B008B1036A5BB1B1F90C3013B90020D1
:1009F00002B010BD204602B0BDE81040FFF75ABF5C
:100A00000191FFF727FF0199EEE70020704700BF33
:100A1000B8B138B50D4A0369156804462BB10DB15C
:100A20002B6A53B1B4F90C300BB9002038BD214604
:100A30002846BDE83840FFF73DBF2846FFF70AFFCC
:100A4000F0E7034A0349044800F056BA0C000020BE
:100A500000000020D90900081000002038B52F4BF5
:100A60001B6805460C4613B11A6A002A4BD0B4F92C
:100A70000C3018071CD5226922B313F0010107D0EE
:100A8000616900204942A060A1613AB1002038BDEF
:100A9000980758BF6169A160002AF7D1190658BFAD
:100AA0001046F4D543F04003A3814FF0FF3038BD2A
:100AB000D9062CD55A0712D4226943F00803A38122
:100AC000002ADAD103F42071B1F5007FD5D0214698
:100AD000284600F0E5FAB4F90C302269CDE7616BE5
:100AE00051B104F14402914204D0284600F056F975
:100AF000B4F90C300022626322690021C4E90021AC
:100B000023F02403D9E71846FFF7A4FEAFE7092234
:100B100043F040032A60A381C7E700BF0C00002018
:100B200070B5104E336805460C46B3B121462846D1
:100B300000F094FE431C0CD0C41C24F00304A0421B
:100B400005D0211A284600F089FE013001D0204648
:100B500070BD4FF0FF34204670BD194600F07EFE98
:100B60003060E3E7080300202DE9F843CD1C25F0B1
:100B7000030508350C2D38BF0C25002D064618DB63
:100B8000A94216D8DFF8DC8000F086FAD8F80420F5
:100B9000A2B1144603E0636822467BB11C46236879
:100BA0005B1BF8D40B2B1FD89442636854D053605E
:100BB0000CE00C2333600020BDE8F8832946304662
:100BC000FFF7AEFF431C044619D00560304600F025
:100BD00065FA04F10B00231D20F00700C21A1CBFA8
:100BE0001B1AA350BDE8F88361199442256014BF15
:100BF0005160C8F80410635163684B60E6E7D8F8A9
:100C000004701FB33C467F68002FFBD12368394630
:100C1000304604EB030900F021FE814516D123681C
:100C2000ED1A29463046FFF77BFF01300ED02368CE
:100C3000D8F804202B442360536883B1A34203D027
:100C40001A465B689C42FBD10023B0E70C2333605B
:100C5000304600F023FAAEE7C8F80430B6E7C8F82B
:100C60000470B3E708030020844641EA000313F050
:100C700003036DD1403A41D351F8043B40F8043BA3
:100C800051F8043B40F8043B51F8043B40F8043B66
:100C900051F8043B40F8043B51F8043B40F8043B56
:100CA00051F8043B40F8043B51F8043B40F8043B46
:100CB00051F8043B40F8043B51F8043B40F8043B36
:100CC00051F8043B40F8043B51F8043B40F8043B26
:100CD00051F8043B40F8043B51F8043B40F8043B16
:100CE00051F8043B40F8043B51F8043B40F8043B06
:100CF00051F8043B40F8043B403ABDD2303211D3A6
:100D000051F8043B40F8043B51F8043B40F8043BE5
:100D100051F8043B40F8043B51F8043B40F8043BD5
:100D2000103AEDD20C3205D351F8043B40F8043BA5
:100D3000043AF9D2043208D0D2071CBF11F8013BA3
:100D400000F8013B01D30B8803806046704700BF69
:100D5000082A13D38B078DD010F003038AD0C3F178
:100D60000403D21ADB071CBF11F8013B00F8013B5A
:100D700080D331F8023B20F8023B7BE7043AD9D319
:100D8000013A11F8013B00F8013BF9D20B780370EE
:100D90004B7843708B78837060467047002950D041
:100DA00038B551F8043C0C1F002BB8BFE4180546B9
:100DB00000F072F9274A13682BB1A3420CD92168BD
:100DC000601883422CD0636028461460BDE8384028
:100DD00000F064B9A3420FD81A465B68002BF9D122
:100DE00011685018844217D02CD363605460284691
:100DF000BDE8384000F052B911685018A04214D034
:100E000020D8216860188342EFD118685B680844D5
:100E1000C4E900035460EAE723680B441360E6E783
:100E200018685B6808442060CDE7206801445018CA
:100E300083421160DBD1D3E900040144C2E900140C
:100E4000D5E770470C232B602846BDE8384000F0FA
:100E500025B900BF0C030020F8B50D461446064620
:100E600010B1036A002B37D0A389A269A2601A07C8
:100E700019D52369BBB122686169D31AEDB29942D1
:100E80002F4620DD0133A1680139A160511C21608A
:100E9000157062699A420DD0A389DB0701D50A2D2E
:100EA00008D03846F8BD21463046FFF7D7FD38B99F
:100EB0002369E0E721463046FFF78EFD0028F0D099
:100EC0004FF0FF37EDE721463046FFF785FD00285C
:100ED000F6D122680123D6E7FFF7BCFCC4E700BFC8
:100EE00010B4044C03460A4620685DF8044B1946CA
:100EF000FFF7B2BF0C0000202DE9F84307468846F3
:100F000016464FF00009D6E90154013D10D4A389DB
:100F1000012B08D9B4F90E3001332146384602D0EE
:100F2000C04749EA0009013D6B1C04F16804EED199
:100F30003668002EE7D14846BDE8F883024B0146EB
:100F40001868FFF711BE00BF0C000020024B0146DD
:100F50001868FFF723BF00BF0C0000200CB400B5D9
:100F600083B004AB53F8042B019300F033FB03B0C0
:100F70005DF804EB02B070470EB410B583B005AB5A
:100F8000064C53F8042B01930146206800F022FB25
:100F900003B0BDE8104003B0704700BF0C00002054
:100FA0000000000000000000000000000000000041
:100FB0000000000000000000000000000000000031
:100FC00030B490F800F020F007016FF0000C10F042
:100FD000070491F820F040F048804FF000046FF0D3
:100FE0000700D1E9002391F840F000F1080082FAEF
:100FF0004CF2A4FA8CF283FA4CF3A2FA8CF34BBBBA
:10100000D1E9022382FA4CF200F10800A4FA8CF232
:1010100083FA4CF3A2FA8CF3E3B9D1E9042382FA00
:101020004CF200F10800A4FA8CF283FA4CF3A2FA15
:101030008CF37BB9D1E9062301F1200182FA4CF24D
:1010400000F10800A4FA8CF283FA4CF3A2FA8CF3B4
:10105000002BC6D0002A04BF04301A4612BAB2FAD6
:1010600082F200EBD20030BC7047D1E9002304F0DB
:101070000305C4F100004FEAC50514F0040F91F810
:1010800040F00CFA05F562EA05021CBF63EA0503AD
:1010900062464FF00004AAE7704700BF704700BFE8
:1010A00070B5B1F90C300C46990796B007D504F12C
:1010B00047030122C4E90432236016B070BDB4F9BD
:1010C0000E100029054629DB6A4600F0D9FB0028EE
:1010D00022DB4FF480612846019EFFF745FD88B36F
:1010E000A389206043F0800306F47046A381B6F51F
:1010F000005F4FF48063C4E90403DED1B4F90E103D
:10110000284601F0F7F90028D7D0A38923F003037C
:1011100043F00103A381D0E7B4F90C3013F0800F42
:1011200014BF40264FF4806631462846FFF71CFD69
:1011300040B1A389206043F08003C4E90406A38181
:1011400016B070BDB4F90C309A05B6D423F0030381
:1011500004F1470243F002030121C4E90421A38101
:101160002260AAE770B50C46B1F90E10002996B0BE
:1011700015461E460FDB6A4600F082FB00280ADB9C
:10118000019B03F47043A3F50053B3FA83F34FF4C8
:1011900080625B0908E0A28912F0800F4FF0000323
:1011A00014BF40224FF48062002033602A6016B0E2
:1011B00070BD00BF10B51C4C002924689AB02DDB0F
:1011C000009004904FF40270ADF80C004FF0000056
:1011D000199013D001394FF6FF7002910591ADF8C7
:1011E0000E006946204600F08FFC421C01DA8B237A
:1011F0002360009B00221A701AB010BD4FF6FF70DA
:1012000002910591ADF80E006946204600F07CFC85
:10121000431C01DA8B2323601AB010BD8B2323609B
:101220004FF0FF30F8E700BF0C00002030B5144647
:10123000002C9BB005462EDB1A464FF40273ADF826
:101240000C304FF0000300910491199313D04FF626
:10125000FF73013CADF80E3069461E9B0294059465
:1012600000F052FC421C01DA8B232B60009B002211
:101270001A701BB030BD4FF6FF73ADF80E306946E3
:101280001E9B0294059400F03FFC431C01DA8B2363
:101290002B601BB030BD8B2303604FF0FF30F8E7AD
:1012A00038B5C46B0CB1002038BD80210546FFF76E
:1012B0005BFC0246E86330B1031F7C3243F8044F05
:1012C0009342FBD1EFE74FF0FF3038BD30B51F2917
:1012D00083B0054608D8C36B0C4653B153F82400BD
:1012E00043F8242003B030BD162303604FF0FF30D5
:1012F000F8E780210192FFF737FC019AE863034683
:101300000028F3D0011F00F17C05002041F8040FF4
:10131000A942FBD1E2E700BF1F2938B505461ED818
:10132000C26B0C466AB152F8213053B1012B06D082
:10133000591C10D0002142F8241020469847002064
:1013400038BD284601F0FEF8224601462846BDE891
:10135000384001F0E1B816230360012038BD1623A0
:1013600003604FF0FF3038BD1F292AD838B5C36B52
:101370000C460546A3B153F8242003EB84034AB17D
:10138000511C0BD0012A07D0002520461D60904734
:10139000284638BD012038BD032038BD022038BDA5
:1013A0008021FFF7E1FB0346E86338B1021F00210B
:1013B0007C3042F8041F8242FBD1DCE74FF0FF3063
:1013C00038BD4FF0FF30704738B5134B1F281D68EC
:1013D0001DD8EA6B044662B152F820304BB1012BA4
:1013E00005D0591C0FD0002142F82010984700204A
:1013F00038BD284601F0A6F8224601462846BDE839
:10140000384001F089B816232B60012038BD16231F
:101410002B604FF0FF3038BD0C000020114B1F280F
:1014200070B51E6808D8F36B04460D464BB153F8EF
:10143000240043F8245070BD162333604FF0FF3072
:1014400070BD80213046FFF78FFB0346F063002814
:10145000F4D0021F00217C3042F8041F8242FBD1ED
:10146000E5E700BF0C00002038B50B4B1D68EC6BA6
:101470000CB1002038BD80212846FFF775FBE863DA
:1014800038B1031F00F17C0243F8044F9342FBD1B3
:10149000EFE74FF0FF3038BD0C00002038B5174B98
:1014A0001F281D6826D80446E86BA0B150F82430E8
:1014B00000EB84004BB15A1C0BD0012B07D0002548
:1014C000056020469847284638BD012038BD0320D6
:1014D00038BD022038BD80212846FFF745FBE86370
:1014E00040B1031F00F17C01002243F8042F8B421E
:1014F000FBD1DBE74FF0FF3038BD00BF0C00002010
:101500000EB400B582B003AB816853F8042B01938D
:1015100000F060F802B05DF804EB03B0704700BF64
:101520000FB400B5074983B004AB086853F8042B27
:101530008168019300F04EF803B05DF804EB04B04D
:10154000704700BF0C0000209368013B002B9360A4
:1015500011DA10B49469A34209DB0A2907D0136891
:10156000581C1060197008465DF8044B70475DF810
:10157000044BFFF771BC1368581C106019700846C3
:10158000704700BF9BB1F8B5134406460F46541E82
:101590005D1E01E0AC4208D014F8011F3A46304607
:1015A000FFF7D2FF431CF5D1F8BD0020F8BD0020A5
:1015B000704700BF936810B514461BB91846002346
:1015C000636010BD00F0D2FB0023A36000236360C2
:1015D00010BD00BF2DE9F04FA1B08B4691461C46CF
:1015E000049018B1036A002B00F01C81BBF80C308A
:1015F000180740F19580DBF81030002B00F0908048
:101600000023CA460D9343F22003ADF839309AF80F
:101610000030864E07940127002B79D0D14604E094
:1016200019F8013F002B00F08580252BF8D1B9EB8C
:101630000A0840F0828099F80030002B68D000231F
:101640004FF0FF32CDE9092309F1010908930B930B
:101650008DF863301E9305E0089A07FA03F31A43E6
:101660000892A1464C46052214F8011B304600F0B2
:101670006FFFA246831B0028EED1089BD90644BF0A
:1016800020228DF8632099F800101A0744BF2B22FE
:101690008DF863202A2966D1079A1168043200293F
:1016A0000792C0F29A800B9199F801102E2970D000
:1016B0005F4C0322204600F04BFF38B1089B001B13
:1016C0004022824013430AF1010A08931AF8011BD1
:1016D00058488DF83810062200F03AFF002800F034
:1016E0008280554B002B69D007AA0092534B049877
:1016F0005A4608A9AFF300800390039B013307D03B
:101700000D9B039A13440D939AF80030002B85D15A
:10171000BBF80C305B060AD40D9821B0BDE8F08F01
:1017200004985946FFF79AF900283FF469AF4FF043
:10173000FF30F2E7B9EB0A08EAD00AF1FF35CDF83D
:101740001490A946049D01E0A0453ED94C465A4656
:1017500019F8011F2846FFF7F7FE02340130A4EB09
:101760000A04F1D1D4E7A1F13002092A88BFCA46A0
:101770009CD80B9B00E00134217803EB830302EB40
:101780004303A1F13002092AF5D92E290B93A24671
:101790008ED19AF801102A292FD1079B9AF80210AE
:1017A0001A6809920433002A0AF102000793B8BFAD
:1017B0004FF0FF338246B8BF099379E7079B0733A1
:1017C00023F00703083307939AE70D99DDF8149087
:1017D000414499F800300D912FE7494243F002034C
:1017E0000B91089360E707AA0092144B04985A469D
:1017F00008A900F03DFD03907FE7A1F1300200232E
:10180000092A09930AF1010A3FF652AF1AF8011F9B
:1018100003EB830302EB4303A1F13002092AF5D95C
:10182000099345E7FFF716F8E0E600BFBC99010809
:10183000C4990108C8990108000000008515000836
:1018400010B4054C8446134620685DF8044B0A46E4
:101850006146FFF7BFBE00BF0C00002038B5074D42
:101860000022044608462A6000F002FF431C00D014
:1018700038BD2B68002BFBD0236038BD100300203F
:1018800070B50C46084D03460026204611461C46FE
:101890002E6000F0BDFE431C00D070BD2B68002BF5
:1018A000FBD0236070BD00BF1003002010B50C46B4
:1018B000B1F90E1000F044FA002803DB636D034415
:1018C000636510BDA38923F48053A38110BD00BFBD
:1018D000002070472DE9F0410C46B1F90C101F466D
:1018E000CB05054616460BD421F48051A1813B4619
:1018F000B4F90E1032462846BDE8F04100F0B6BB00
:10190000B4F90E100223002200F0D8FBB4F90C1039
:10191000EAE700BF10B50C46B1F90E1000F0CEFB9F
:10192000B4F90C30421C0EBF23F4805343F48053AF
:101930006065A38110BD00BFB1F90E1000F0ACBB13
:101940002DE9F0478F681D46AF420B680C461646DE
:1019500036D8B1F90CC01CF4906F0ED13D46184634
:1019600031462A46FEF7EEFCA368DF1B2368A7601A
:101970002B4400202360BDE8F0874A69096902EB27
:1019800042025F1A02EBD2726B1C52103B4493422C
:1019900092BF914699461A461CF4806F804611D03A
:1019A0001146FFF7E1F8824600B321693A46FFF796
:1019B0005BF9A38923F4906343F08003A38105E0DE
:1019C0002F46CCE700F090FB824658B10AEB0703A4
:1019D000A9EB0707A760C4F810A0C4F8149023600F
:1019E0002F46BCE721694046FFF7D8F9A3890C22AE
:1019F00043F04003C8F800204FF0FF30A381BAE75E
:101A00002DE9F04F9368176883B09246002B74D08D
:101A10004FF0000B8B680A6881460C465D4645E036
:101A2000B4F90C3013F4906F2CD0D4E90401161AD9
:101A300001EB410202EBD272711C52102944914217
:101A400092BF904688460A465B0539D511464846FE
:101A5000FFF78AF8019000283DD032462169FFF750
:101A600003F9A289019B22F4906242F08002A281D4
:101A70009819A8EB0606A660C4F8148023612060BC
:101A8000A8462E4632465946FEF75CFCDAF80810A6
:101A9000A3682268A3EB08033244491BA3602260B9
:101AA000CAF8081049B3D7E900B508379846104678
:101AB000002DF8D09D421E46B2D2A8462E46E1E740
:101AC0000146484600F010FB03460028D0D12169AA
:101AD0004846FFF763F9A3890C2243F04003C9F895
:101AE00000204FF0FF30A38100220023CAF8082015
:101AF000CAF8043003B0BDE8F08F00200023CAF814
:101B0000043003B0BDE8F08F2DE9F04F1C468B89FF
:101B10001D069DB088468146934603D50B69002B70
:101B200000F0F1800023099343F22003ADF829303F
:101B30009BF800307D4D03940126002B73D0DA46CC
:101B400003E01AF8013F002B75D0252BF9D1BAEB31
:101B50000B0473D19AF80020002A64D000234FF0C0
:101B6000FF32CDE905230AF1010A049307938DF8AA
:101B700053301A9305E0049A06FA03F31A430492C9
:101B8000A2465446052214F8011B284600F0E0FC4A
:101B9000A346431B0028EED1049BD80644BF202255
:101BA0008DF8532019079AF8001044BF2B228DF8A6
:101BB00053202A2950D1039A116804320029039234
:101BC0007CDB07919AF801102E295BD0584C032238
:101BD000204600F0BDFC38B1049B001B402282402F
:101BE00013430BF1010B04931BF8011B51488DF8B3
:101BF0002810062200F0ACFC002865D04E4B002BCC
:101C000055D003AA00924D4B424604A94846AFF373
:101C1000008007467A1C06D0099B3B4409939BF839
:101C20000030002B8BD1B8F80C305B067AD40998C1
:101C30001DB0BDE8F08FBAEB0B04F4D023465A4632
:101C400041464846FFF77CFE0130ECD0099B9AF8EC
:101C50000020234409937FE7A1F13002092A88BFBD
:101C6000D346B1D8079B00E00134217803EB83030E
:101C700002EB4303A1F13002092AF5D92E2907937B
:101C8000A346A3D19BF801102A2927D1039B9BF8D7
:101C900002101A6805920433002A0BF10200039324
:101CA000B8BF4FF0FF338346B8BF05938EE7039B61
:101CB000073323F0070308330393ADE7494243F0AA
:101CC0000203079104937DE703AA00921B4B42464F
:101CD00004A9484600F0CCFA07469BE7A1F1300280
:101CE0000023092A05930BF1010B3FF66FAF1BF898
:101CF000011F03EB830302EB4303A1F13002092A26
:101D0000F5D9059362E74021FEF72EFFC8F80000E1
:101D1000C8F8100018B14023C8F8143002E70C23AB
:101D2000C9F800304FF0FF3082E700BFBC990108CE
:101D3000C4990108C8990108000000004119000871
:101D400038B50C46084D8446114620461A460023F5
:101D50002B60644600F084FC431C00D038BD2B6827
:101D6000002BFBD0236038BD100300209368002BAC
:101D700000F0F8802DE9F04FB1F90CC01CF0080F0D
:101D800083B0904681460C4631D00B697BB31CF082
:101D90000207D8F8006038D00027D4F828B0216AAC
:101DA000DFF8C4A23D4655452B463A4628BF534668
:101DB0004846C5B1D847002840F3CA80D8F8083053
:101DC0001B1A07442D1AC8F80830002B00F0B68003
:101DD00055452B46D4F828B0216A28BF53463A46C9
:101DE0004846002DE6D1D6E900750836DBE72146E6
:101DF0004846FEF733FE002840F0AF80B4F90CC02F
:101E0000D8F800601CF00207C6D11CF0010A63D1AB
:101E10002368A168574618468B46002F58D01CF4FB
:101E2000007F00F0B580B9420A4600F2E1801CF460
:101E3000906F2FD0216962695D1A02EB420202EBBA
:101E4000D2726B1C52103B44934292BF93469B4606
:101E50001A461CF4806F00F0EA8011464846FEF7EF
:101E600083FE002800F0F9802A4621690090FEF7E1
:101E7000FBFEA289009B22F4906242F08002A281C4
:101E80005819ABEB0505C4F814B02361A5602060B8
:101E9000BB463A4651460092FEF754FAA1682368C1
:101EA000009AA1EB0B011A443D46A1602260002775
:101EB000D8F808305B1BAA44C8F80830002B3DD086
:101EC0002368A168B4F90CC018468B46002FA6D130
:101ED000D6E900A708369EE73846BB463D46009740
:101EE000002D41D0002846D0009A2068A168D4E98E
:101EF0000473AA4228BF2A46B84204D901EB030A58
:101F0000524500F38580934275DC216AA76A5A46E0
:101F10004846B847B0F1000A1ADD009BB3EB0A034C
:101F200000930FD00120D8F80830A3EB0A03D34464
:101F3000A5EB0A05C8F80830002BD1D1002003B06A
:101F4000BDE8F08F21464846FEF746FD0028EAD05E
:101F5000B4F90C3043F04003A3814FF0FF3003B0DD
:101F6000BDE8F08F00207047756833460836002DB5
:101F7000FAD0D3F800B02A460A21584600F0E8FA11
:101F8000002867D00130A0EB0B0300931A46ACE7A2
:101F900022699A4214D36269BA4211D86FF00043A1
:101FA000BB4228BF3B46A56A93FBF2F3216A02FBC2
:101FB00003F348465246A847051EC9DD7F1B77E755
:101FC000B94228BF39460D4618460A465146FEF723
:101FD000B9F9A1682368491B2B44A160236000293B
:101FE000ECD121464846FEF7F7FC0028E6D0AFE7E3
:101FF000BB463A464EE759460192FEF7A3F9019ACD
:10200000A3689B1AA360236813442360924684E765
:1020100059465246FEF796F92368534423602146F9
:102020004846FEF7D9FC00283FF477AF90E74846D2
:1020300000F05AF8034600287FF422AF2169484691
:10204000FEF7ACFEB4F90C300C22C9F8002023F0E6
:1020500080037FE76A1C009247E70C22B4F90C303A
:10206000C9F8002076E700BF00FCFF7F38B50C46BA
:10207000084D8446114620461A4600232B606446CC
:1020800000F09CFC431C00D038BD2B68002BFBD01B
:10209000236038BD1003002038B5074D00220446E8
:1020A00008462A6000F0ACFA431C00D038BD2B680B
:1020B000002BFBD0236038BD1003002038B50C4640
:1020C000084D8446114620461A4600232B6064467C
:1020D00000F0BEFA431C00D038BD2B68002BFBD0AB
:1020E000236038BD100300202DE9F041144641B3B0
:1020F0000AB306460D4600F07BFA8442074602D832
:10210000B4EB500F13D821463046FEF72DFD804624
:1021100050B1BC422246294628BF3A46FEF7A4FDEC
:1021200029463046FEF73AFE4046BDE8F081A84613
:102130004046BDE8F081A046FEF730FE4046BDE8CF
:10214000F081BDE8F0411146FEF70EBD2DE9F84FD4
:1021500092461F460A698B68DDF828909A42B8BFFC
:102160001A46CAF8002091F843300C46064613B1CF
:102170000132CAF80020226891065FD5DAF80030F3
:102180000233CAF80030226812F0060F11461DD142
:10219000E1689942D8BF114618DD4FF0000804F1FC
:1021A000190B05E0E568DAF80030ED1A45450CDD5D
:1021B00001235A4639463046C847013008F1010824
:1021C000F0D14FF0FF30BDE8F88F216894F843302C
:1021D000003B18BF01238A060AD5E1185A1C30209B
:1021E00081F84300224494F8451082F843100233EA
:1021F00004F1430239463046C8470130E1D0236834
:10220000DAF80050216903F00603042BD4E9022018
:102210001BD08A4220DD4FF00008521A90441A3435
:10222000002501E0454517DA0123224639463046AC
:10223000C847013005F10105F4D1C2E712F0060FDD
:102240000DD0003B18BF0123D2E7401B8A4220EA91
:10225000E078E2DC0028E2DC0020BDE8F88FE168ED
:10226000DAF800309942D8BF114696DCAEE700BFDD
:102270002DE9F047174684B00A7E0C9D0C460646B1
:10228000984601F1430C002A35D0A2F15803D9B287
:10229000202969D8202B67D8DFE813F0E600660014
:1022A00066006600660066006600660066006600FE
:1022B0006600AC0070006600660066006600700094
:1022C000660066006600660021008300C6006600A6
:1022D0006600B6006600830066006600EC002B68AE
:1022E00022686169181D286010061B6802D4520616
:1022F00000F1E08019600023E1462361CDF8008001
:102300003B4603AA21463046FFF720FF013020D08C
:1023100023694A4639463046C047013019D0236800
:10232000E068DDF80C909B0718D5484516DD0025C0
:1023300004F1190A04E0E068A0EB0903AB420DDDEB
:102340000123524639463046C047013005F10105A8
:10235000F1D14FF0FF3004B0BDE8F0874845B8BF79
:10236000484604B0BDE8F08784F84220012004F11B
:1023700042090023206184F84330BFE72A682368BC
:10238000111D1806296002D4590600F195801068C5
:10239000014600286268C0F2938054484FF00A0E4C
:1023A00015E020682B6810F0800F53F8041B02D151
:1023B000400648BF89B26F2A4C482B6014BF4FF0CB
:1023C0000A0E4FF0080E0023626884F84330002A9A
:1023D000A26051DB236823F00403236000294BD162
:1023E000002A7BD1E146BEF1080F56D0ACEB0903C1
:1023F000236183E72B681A6804332B6004F14209D8
:1024000084F842200120B4E72B686268191D296016
:10241000D3F800900021484600F09AF8002863D0D5
:10242000A0EB09006060A4E7236843F02003236069
:1024300078222F4884F845202A6813F0800F52F83C
:10244000041B03D113F0400F18BF89B22A60DA07CA
:1024500044BF43F02003236019B9236823F020030D
:1024600023604FF0100EAEE7582384F845301F4824
:102470002368E1E72368DBE77546E146B1FBF5F346
:1024800005FB131A0A46AA4210F80A1009F8011DA2
:102490001946F3D2BEF1080FA8D12368DD07A5D5F0
:1024A000626823699A42A1DC302309F8013C09F1F2
:1024B000FF399BE719801EE7B2F90010084668E76C
:1024C0002D20002AA26084F8430002DB23F00403DD
:1024D00023600A2505484942AE46CEE7037884F8D2
:1024E000423004F142097EE7606842E7D099010872
:1024F000E499010838B5074D0022044608462A60D1
:1025000000F096F8431C00D038BD2B68002BFBD0A0
:10251000236038BD1003002070B50C46084D0346FB
:102520000026204611461C462E6000F089F8431C08
:1025300000D070BD2B68002BFBD0236070BD00BFA6
:102540001003002000F06CB8000000000000000044
:1025500001F0FF01102A2BDB10F0070F08D010F854
:10256000013B013A8B422DD010F0070F42B3F6D158
:10257000F0B441EA012141EA014122F007047FF071
:1025800000070023F0E80256083C85EA010586EAC8
:10259000010685FA47F5A3FA87F586FA47F6A5FA04
:1025A00087F68EB9EED1F0BC01F0FF0102F0070210
:1025B00032B110F8013B013A83EA010313B1F8D1BB
:1025C0000020704701387047002D06BF354603389C
:1025D000073815F0010F07D1013015F4807F02BFD5
:1025E000013015F4C03F0130F0BC0138704700BF26
:1025F00051F8043C181F002BBCBF0B58C018704783
:10260000024B58221A604FF0FF3070471003002031
:10261000024B58221A604FF0FF3070471003002021
:10262000024B58221A604FF0FF3070471003002011
:10263000024B58221A600020704700BF1003002090
:10264000024B58221A604FF0FF30704710030020F1
:10265000024B58221A604FF0FF30704710030020E1
:10266000024B58221A604FF0FF30704710030020D1
:10267000044A05491368002B08BF0B461844106034
:102680001846704714030020C0A40020FEE700BFD6
:1026900053B94AB9002908BF00281CBF4FF0FF31C9
:1026A0004FF0FF3000F088B9ADF1080C6DE904CEB1
:1026B00000F006F8DDF804E0DDE9022304B070471D
:1026C0002DE9F047089D0F4604468C46002B48D163
:1026D0008A42164661D9B2FA82F34BB1C3F12002A5
:1026E00001FA03FC20FA02F29E4042EA0C0C9C40E4
:1026F0004FEA164EB7B2BCFBFEF1220C0EFB11CC1A
:1027000042EA0C4201FB07F0904209D9B21801F1EC
:10271000FF3C80F0EE80904240F2EB800239324480
:10272000121AA4B2B2FBFEF00EFB102244EA0244DD
:1027300000FB07F7A74209D9341900F1FF3280F0F6
:10274000DA80A74240F2D7803444023840EA0140A0
:10275000E41B00211DB1DC400023C5E90043BDE8B6
:10276000F0878B4206D90DB1C5E90001002108466A
:10277000BDE8F087B3FA83F1002948D1BB4202D308
:10278000824200F20781841A67EB0302012094461B
:10279000002DE4D0C5E9004CE1E7002A00F092806A
:1027A000B2FA82F3002B40F0A8808A1A4FEA164E44
:1027B0001FFA86FC0121200CB2FBFEF70EFB17224C
:1027C00040EA02420CFB07F0904207D9B21807F129
:1027D000FF3802D2904200F2E2804746121AA4B2B9
:1027E000B2FBFEF00EFB102244EA02440CFB00FC9C
:1027F000A44507D9341900F1FF3202D2A44500F2F2
:10280000CB801046A4EB0C0440EA0740A2E7C1F1DC
:1028100020068B4022FA06FC4CEA030C07FA01F46E
:1028200020FA06F3F7404FEA1C49234300FA01F867
:102830001FFA8CFEB7FBF9F01C0C09FB107744EA79
:10284000074400FB0EF7A74202FA01F20AD91CEB7B
:10285000040400F1FF3A80F09B80A74240F2988088
:1028600002386444E41B9FB2B4FBF9F309FB134440
:1028700047EA044403FB0EFEA64509D91CEB0404F9
:1028800003F1FF3780F08280A6457FD9023B644484
:1028900043EA0040A4EB0E04A0FB02E7BC427346EF
:1028A000B94663D360D05DB1B8EB030264EB0904B1
:1028B00004FA06F622FA01F31E43CC40C5E900648F
:1028C00000214CE76208480842EAC1710B0C43EA58
:1028D00000438AB242EA0342B3FBF6F1E407B4468E
:1028E0003746B6461F23B0FBF6F0D21B41EA004143
:1028F00061E7614614E7104628E7C3F1200120FA9A
:1029000001F29E4027FA01F19F403A434FEA164EEA
:102910001FFA86FCB1FBFEF70EFB1710110C41EA03
:10292000004107FB0CF8884504FA03F43AD9711802
:1029300007F1FF3001D288451FD8A1EB0801B1FB98
:10294000FEF808FB0CF70EFB181192B242EA0142A6
:10295000BA422FD2B21808F1FF31C6D2BA42C4D25D
:10296000A8F102013244C0E7F0459CD2BEEB02035D
:1029700067EB0C070138B94695E7A6EB0808414418
:10298000B81EB1FBFEF808FB0CF7DCE73B467FE71F
:10299000504667E70846FBE63444023832E7023F18
:1029A00032441BE7A1EB08013846B1FBFEF808FBF7
:1029B0000CF7C8E7414698E7704700BF38B50D46A9
:1029C000144600224FF40051094802F0A6F964238E
:1029D000A2B22946074807F050FF0228F7D001228B
:1029E0004FF40051024802F098F9204638BD00BF6C
:1029F000001002400C05002008B5002014F0DAFB9E
:102A000000B108BD0A2114F0F1FB18B90348FDF725
:102A1000AFFDF6E70248FDF7ABFDF2E77C72010877
:102A20009072010872B6FEE710B594B008AC30227F
:102A300000212046FDF7A4FD002303930493059392
:102A4000069307930193224A116C41F0805111645F
:102A5000126C02F080520192019A02931D4B1A6887
:102A600042F480421A601B6803F480430293029B85
:102A7000092308934FF48033099301230D93022314
:102A80000E934FF480020F92192210924FF4A87205
:102A90001192129307231393204601F0D7FB90B9AC
:102AA0000F23039302230493002305934FF4A053B1
:102AB00006934FF480530793052103A801F016FEF7
:102AC00018B914B010BDFFF7ADFFFFF7ABFF00BFA3
:102AD000003802400070004008B502F025FCFFF706
:102AE000A3FF00F02FF813F0B1F800F0D7F800F0D2
:102AF000F5F800F0D3F900F00DFA00F08BFB00F0D0
:102B0000A3FB00F09BFD01F063F812F085FA13F0CF
:102B1000B7F800F0CFFA0948FDF72AFD0848FDF79D
:102B200027FDFFF769FF00F039FB00F091FA00F094
:102B300081FC00F0C5FD00F0C3FDFCE7A8720108B0
:102B4000BC7201082DE9F0418CB007AD0024079458
:102B5000089409940A940B9401944A4B1A6B42F01E
:102B600010021A631A6B02F010020192019A029489
:102B70001A6B42F004021A631A6B02F0040202920A
:102B8000029A03941A6B42F080021A631A6B02F0E5
:102B900080020392039A04941A6B42F001021A63B2
:102BA0001A6B02F001020492049A05941A6B42F027
:102BB00002021A631A6B02F002020592059A069449
:102BC0001A6B42F008021A631B6B03F008030693AA
:102BD000069B2D4E01224EF20811304602F09DF860
:102BE00022468021304602F098F8284F2246802164
:102BF000384602F092F841F67763079308940994F7
:102C00002946304601F0F2FE4EF2881307934FF04A
:102C10000108CDF8208009940A942946304601F035
:102C2000E5FE42F2C1030793089409942946184827
:102C300001F0DCFE40F279130793089409942946C9
:102C4000144801F0D3FE872307930894099429467A
:102C5000114801F0CBFE4FF61873079308940994BE
:102C60002946384601F0C2FE80230793CDF8208024
:102C700009940A942946384601F0B8FE0CB0BDE824
:102C8000F08100BF0038024000100240000C0240FA
:102C900000080240000002400004024008B50D4850
:102CA0000D4B03600623436000238360C3604FF431
:102CB000A02202614FF4C00242610376437683761C
:102CC000C3760377437704F0F4FF00B908BDFFF73C
:102CD000A9FEFBE7440300200064004008B50D484E
:102CE0000D4B03600623436000238360C3604FF4F1
:102CF000A02202614FF4C0024261037643768376DC
:102D0000C3760377437704F0D4FF00B908BDFFF71B
:102D100089FEFBE71C0300200068004010B58AB064
:102D20000023059306930793089309930368554A74
:102D3000934204D0544A93424CD00AB010BD534A37
:102D4000136801331360012B37D000240194504BDA
:102D50001A6B42F008021A631B6B03F0080301931D
:102D6000019B0323059302220692089309230993EA
:102D700005A9484801F03AFE22462146132002F0F8
:102D80007BFA132002F088FA22462146142002F032
:102D900073FA142002F080FA22462146152002F030
:102DA0006BFA152002F078FA22462146162002F02E
:102DB00063FA162002F070FABFE700230093344B49
:102DC0001A6C42F000721A641B6C03F000730093DB
:102DD000009BBAE7002302932D4B1A6C42F08062ED
:102DE0001A641B6C03F080630293029B274A1368EA
:102DF00001331360012B38D000240494244B1A6B48
:102E000042F002021A631B6B03F002030493049B5B
:102E10006023059302230693032308930923099350
:102E200005A91D4801F0E2FD224621463F2002F09F
:102E300023FA3F2002F030FA22462146402002F0D9
:102E40001BFA402002F028FA22462146412002F0D7
:102E500013FA412002F020FA22462146422002F0D5
:102E60000BFA422002F018FA67E700230393084B9D
:102E70001A6C42F000721A641B6C03F00073039327
:102E8000039BB9E70064004000680040180300207D
:102E900000380240000C02400004024008B5094816
:102EA000094B0360002343607F228260FF22C260DF
:102EB00003614361836106F06BF800B908BDFFF759
:102EC000B1FDFBE76C0300200028004000B585B091
:102ED0000023009301930293039302680B4B9A42E1
:102EE00002D005B05DF804FB022300934FF4007399
:102EF0000393684601F0D0FC20B9054B0122C3F8CA
:102F00003C2EEEE7FFF78EFDF7E700BF00280040FC
:102F100000004742074B084A1A6000225A609A6034
:102F20004FF40071D9601A614FF480425A61032254
:102F30009A617047EC030020002C01402DE9F04716
:102F400088B00023039304930593069307930268C4
:102F50003A4B9A4202D008B0BDE8F08704460025FB
:102F6000009503F586335A6C42F400625A645A6C39
:102F700002F400620092009A01951A6B42F004027A
:102F80001A631A6B02F004020192019A02951A6BFD
:102F900042F008021A631B6B03F008030293029BC2
:102FA0004FF4885303934FF0020ACDF810A0032684
:102FB00006964FF00C09CDF81C900DEB0908414620
:102FC0001F4801F013FD04270397CDF810A00595C5
:102FD0000696CDF81C9041461A4801F007FD1A48A4
:102FE0001A4B03604FF0006343608560C5604FF487
:102FF000806303614FF4805343614FF480438361E6
:103000002023C3610562476286624FF40003C362F6
:103010004FF40013036301F003FF60B90A4B23640C
:103020009C63E36300221146312002F025F9312030
:1030300002F032F98FE7FFF7F5FCEFE7002C0140D3
:1030400000080240000C02408C030020586402403B
:1030500000B5ADF50F7D0022124902A812F028FD3F
:1030600018B10DF50F7D5DF804FB01AA02AB1360EA
:1030700069460C4812F04AFD70B9079B9A1EBDF8CC
:10308000123003FB02F2084BA3FB0232D2090549BE
:103090000648FEF745FAE4E702490548FEF740FA1C
:1030A000DFE700BFA89A0020D34D6210F07201083C
:1030B000D872010808B50D480D4B03604FF48273B8
:1030C000436000238360C360036143614FF4007277
:1030D0008261C3610362436283620A23C36207F0B1
:1030E000F7F800B908BDFFF79DFCFBE7700400206E
:1030F000003800402DE9F04188B000230393049389
:103100000593069307930268214B9A4202D008B0B8
:10311000BDE8F0810024009403F500331A6C42F4FA
:1031200080421A641A6C02F480420092009A019460
:103130001A6B42F004021A631A6B02F00402019245
:10314000019A02941A6B42F002021A631B6B03F09D
:1031500002030293029B0C2303934FF00208CDF865
:10316000108003270697052607960DEB03052946D1
:10317000084801F03BFC4FF480630393CDF81080C6
:103180000594069707962946034801F02FFCBEE7F1
:1031900000380040000802400004024010B584B02E
:1031A0009F2302930024ADF80C408DF80E4064205C
:1031B00002F0E6F822460821114801F0AEFD02A90E
:1031C0006423009307230A460E4807F0E0F80446FC
:1031D00020B9029A0C4B9A4208D0012401220821FE
:1031E000074801F09AFD2CB904B010BD0748FDF75F
:1031F000BFF9F3E721460648FEF792F9F4E700BF6E
:10320000001002407004002000EF4017087301080E
:103210001C73010808B50A480A4B03604FF4E133F8
:10322000436000238360C36003610C2242618361B9
:10323000C36107F0F3FA00B908BDFFF7F3FBFBE742
:103240000C0500200010014008B50B480B4B036033
:103250004FF41653436000238360C3604FF4C06291
:1032600002610C2242618361C36107F0D7FA00B9A1
:1032700008BDFFF7D7FBFBE7C8040020004400406F
:1032800010B58AB00023059306930793089309931A
:1032900003682F4A934204D02E4A93422DD00AB09D
:1032A00010BD002401942C4B5A6C42F010025A6459
:1032B0005A6C02F010020192019A02941A6B42F0C9
:1032C00001021A631B6B03F001030293029B4FF48C
:1032D000C0630593022306930323089307230993EE
:1032E00005A91E4801F082FB22462146252001F057
:1032F000C3FF252001F0D0FFD1E700240394164B33
:103300001A6C42F400321A641A6C02F4003203920E
:10331000039A04941A6B42F008021A631B6B03F0C1
:1033200008030493049B602305930223069303235D
:1033300008930723099305A9094801F057FB224682
:103340002146262001F098FF262001F0A5FFA6E7E0
:1033500000100140004400400038024000000240DC
:10336000000C024010B50446FDF72AFE642382B229
:103370002146024807F081FA10BD00BF0C0500206D
:103380000FB410B582B004AB53F8042B0193064C74
:1033900080212046FDF70EFF2046FFF7E3FF02B035
:1033A000BDE8104004B0704750050020002A3CD012
:1033B0002DE9F041ADF5087D1D4614461289112A0C
:1033C00006D820460CF024FD0DF5087DBDE8F081FF
:1033D00003AE002340F212218A4228BF0A4631463A
:1033E00020460CF06DFF072210493046FDF71AF910
:1033F0000028E6D13389B3F5A04FE2D13346F27B02
:10340000B77B47EA0227328A160246EA1226B6B28C
:1034100093F80C80284610F0BBFD009033464246DE
:1034200039460348FFF7ACFFCBE770473873010814
:103430004073010810B50DF0F3FB80B1044641F66E
:1034400036120D490DF0B0F9024660B900220B4961
:1034500020460DF0A7FB0A48FFF784FF10BD09487E
:10346000FFF780FFFAE741F636110748FFF788FFBC
:1034700020460DF0ABFBF1E74C9B0108AD33000893
:10348000D073010870730108A4730108FEE7FEE71A
:10349000FEE7FEE7FEE770477047704708B501F0AA
:1034A0005DFF08BD08B5024804F0B6FC08BD00BFCA
:1034B0004403002008B5024804F0AEFC08BD00BF7C
:1034C0004403002008B5024804F0A6FC08BD00BF74
:1034D0004403002008B5024804F09EFC08BD00BF6C
:1034E0004403002008B5024807F0BCFA08BD00BF3D
:1034F0000C05002008B5024807F0B4FA08BD00BF6B
:10350000C804002008B5024806F05AFD08BD00BFF7
:10351000EC03002008B5024801F078FD08BD00BFAB
:103520008C03002008B5024802F0DCFB08BD00BF98
:103530007406002008B5024802F0D4FB08BD00BFA5
:103540007406002008B5024804F066FC08BD00BF00
:103550001C03002008B5024804F05EFC08BD00BF53
:103560001C03002008B5024804F056FC08BD00BF4B
:103570001C03002008B5024804F04EFC08BD00BF43
:103580001C03002008B5024803F0A2F808BD00BFE4
:103590007059002008B5024807F0B2FF08BD00BF0F
:1035A000FC9C002008B5024807F0AAFF08BD00BF38
:1035B000FC9C002008B5024807F0A2FF08BD00BF30
:1035C000FC9C002082B0002100910B4B5A6C42F40D
:1035D00080425A645A6C02F480420092009A01912F
:1035E0001A6C42F080521A641B6C03F080530193F2
:1035F000019B02B0704700BF00380240034AD2F876
:10360000883043F47003C2F88830704700ED00E062
:103610007047000010B5044601F0ACFE064B1B6875
:10362000C31A632B00D810BD01F0A4FE024B186032
:10363000204600F097F9F6E71806002010B584B090
:103640000BF0B6FE16494FF002330B60154AFF230C
:103650001360154B15481860154C16480290164813
:1036600001900020009020460CF00EF920460CF04E
:103670009FF994F8353013F0040F0CD020460CF06D
:103680009DF90B4C0D4920460CF026FA20460FF010
:103690002DF904B010BD06480CF0B2F9F1E700BFF7
:1036A000D8050020D4050020D00500200202020128
:1036B000DC05002091B60008053B00081136000823
:1036C00010B5054C204600F0A7F80BF045FF20464A
:1036D000FFF7A0FF10BD00BFDC05002000207047F1
:1036E00000B583B000230193054B1B781BB10198F3
:1036F00003B05DF804FB01A9024802F06EFAF6E798
:10370000640800207406002070B58CB00C4630268A
:10371000324600216846FCF733FF324600216846F6
:10372000FCF72EFF2246002303E01168E9B10133C4
:1037300012681AB3032B2DD8516803EB43000CAD6C
:1037400005EB800040F8301C518940F82C1C002B00
:10375000EBD0581E03EB430C0DEB8C0100EB40004B
:1037600005EB800040F8281CDFE703EB43010CA8C1
:1037700000EB8101002041F8280CD8E72389074994
:103780004B60C1F808D04C631422054802F0C0F920
:10379000002001E06FF00B000CB070BD3C06002073
:1037A0007406002008B5014605480BF085FF054B5F
:1037B0001B78012B00D008BD024B00221A70FAE7DB
:1037C000109A01086408002008B501F0D3FD08BD77
:1037D00008B5024802F0E6FB002008BD7406002090
:1037E00008B513460A460146034802F005FB00B936
:1037F00008BD4FF0FF30FBE77406002008B5134604
:103800000A460146034802F01FFB00B908BD4FF00D
:10381000FF30FBE77406002038B5054600E074B1C0
:103820002846FFF75DFF04460028F8D02B6929469B
:1038300098470028F3D020460CF0EAFAEFE738BDAD
:1038400008B501F097FD08BD2DE9F0418CB00023CB
:103850000793089309930A930B9302683D4B9A428E
:1038600002D00CB0BDE8F08100240194A3F5904390
:103870001A6B42F000721A631A6B02F00072019226
:10388000019A02941A6B42F080621A631A6B02F07A
:1038900080620292029A03941A6B42F000621A63E9
:1038A0001A6B02F000620392039A04941A6B42F0BE
:1038B00004021A631A6B02F004020492049A05943B
:1038C0001A6B42F001021A631A6B02F001020592B0
:1038D000059A06941A6B42F002021A631B6B03F0FE
:1038E00002030693069B322307934FF00208CDF89C
:1038F000208003270A970B260B9607AD294616480A
:1039000001F074F886230793CDF8208009940A9774
:103910000B962946114801F069F84FF4605307935C
:10392000CDF8208009940A970B9629460C4801F09F
:103930005DF8224621463D2001F09EFC3D2001F02D
:10394000ABFC224621463E2001F096FC3E2001F0D1
:10395000A3FC86E70080024000080240000002400D
:10396000000402402DE9F0419AB00446642200218F
:1039700001A8FCF705FE244800F007FC94F8353058
:1039800013F0040F01D001280BDD13F0040F2CD12C
:1039900001282ADD831E032B27D8DFE803F00C2E35
:1039A00029321A4802F07CF820460CF029F820460B
:1039B0000CF074F819E04FF400674FF4804801AE42
:1039C000124D3146284602F065FA0797CDF8188067
:1039D0003146284602F0D7FA284602F025F820465C
:1039E0000BF0ECFF20460CF031F81AB0BDE8F08186
:1039F0004FF400674FF00008E1E700274FF48048DC
:103A0000DDE70027B846DAE71C0600207406002030
:103A10002DE9F04182B00446324D334B2B60002635
:103A20008DF8006080238DF80130E1238DF802309D
:103A30008DF803608DF8046001238DF80530C5F81A
:103A400004D04FF40003AB60284BEB60284B2B6194
:103A50004FF4C0636B61284601F086FF0746DFF82C
:103A6000A080382231464046FCF78AFD2123C8F861
:103A700000304FF44003C8F814301E480BF0C8FD66
:103A8000062384F834306B681A7884F82E205A782C
:103A900084F82F209A7884F83020DA7884F831205E
:103AA0001A7984F832205B7984F8333040F2DC53A1
:103AB000A38594F8353043F00A0384F835300E4D71
:103AC0000E49284600F0DAFA284600F0F6FA2FB937
:103AD0002046FFF747FF02B0BDE8F081FEF7A2FFE6
:103AE000F9E700BF74060020008002402407002090
:103AF000C4070020109A01081C0600206000002066
:103B00003C06002010B5044670B1732384F83630AB
:103B1000742384F83730084B6361084BA361204657
:103B2000FFF776FF002010BD054B4FF4B572054935
:103B30000548FDF7F5FCE8E76D3201080937000894
:103B4000F4730108107401082074010810B582B0E4
:103B500004460E480BF080FD88B1034600F12002B8
:103B600022600B4A02614FF4C06201922268009207
:103B70004122002108460CF0E5F802B010BD054BCB
:103B800001221A7000232360F7E700BF109A010892
:103B9000A53700086408002030B4A2F120040025F5
:103BA00042F8205C22F8185C22F8163C026822B128
:103BB0000A6814600C60026805E00460FAE7118985
:103BC000194411811268002AF9D130BC70470000F5
:103BD00008B500220F49104810F0E2F970B90F49FA
:103BE0000D4810F0F4F960B90D490B4811F0D3F904
:103BF00050B9094810F00BFA48B908BDFEF712FF9A
:103C0000EDE7FEF70FFFEFE7FEF70CFFF1E7FEF73A
:103C100009FFF2E7A8000020F05100202C0100204D
:103C2000C400002012230B8000487047940000203D
:103C300004230B800048704790000020002393422B
:103C40001ED200B510E00CF1370C01F813C00001D2
:103C50004FEA430C0CF1010C4FF0000E01F80CE0A0
:103C60000133DBB2934209D24FEA107CB0F1204F0E
:103C7000E9D20CF1300C01F813C0E8E75DF804FB61
:103C80007047000038B50B4BD3F8100AD3F8144A2C
:103C9000D3F8183AC01800D138BD074D082229467C
:103CA000FFF7CCFF042205F110012046FFF7C6FF05
:103CB000F2E700BF0070FF1F7600002008B51A234E
:103CC0000B80FFF7DFFF014808BD00BF7400002034
:103CD00008B50A4628B90549054810F0DEFE034834
:103CE00008BD0249024810F0D8FEF8E7CC54002085
:103CF0006074010810B50A46034C2146034810F0D1
:103D0000CCFE204610BD00BFCC54002078740108C2
:103D100008B50A4628B90549054810F0BEFE034813
:103D200008BD0249024810F0B8FEF8E7CC54002064
:103D30008C74010808B50A4628B90549054810F0F1
:103D4000ACFE034808BD0249024810F0A6FEF8E7A1
:103D5000CC5400209874010800207047222801D01C
:103D6000002070474B8813F0010F03D0034B012252
:103D70001A70F5E7014B00221A70F1E7CC560020CB
:103D80000020704710B50146044C204611F01CF984
:103D9000204611F025F9002010BD00BFF051002091
:103DA00010B5064C00220649204611F0FFF80549DF
:103DB000204611F009F9002010BD00BFF05100208D
:103DC000D05600201057002030B589B0002303934F
:103DD00004930593069307930368B3F1A04F01D0B2
:103DE00009B030BD03AA00250195174C236B43F0A1
:103DF00001032363236B03F001030193019B4FF441
:103E0000C053039302230493032306930A230793C7
:103E100011460E4800F0EAFD636B43F080036363D4
:103E20000295636C43F480436364636C03F48043E2
:103E30000293029B2A462946432001F01DFA4320A3
:103E400001F02AFACCE700BF00380240000002402F
:103E500008B500F2C441D0F8080510F0EEF808BD2E
:103E600008B501EBC10300EB8303D3F88C22D0F833
:103E7000080510F0ABF908BD08B501EBC10300EB74
:103E80008303DA6CD0F8080510F000FA08BD08B515
:103E9000D0F8080510F048F908BD10B50446C3680D
:103EA0003BB1022B01D1012104E0FEF7BBFD012152
:103EB00000E00021D4F8080510F01DF9D4F8080539
:103EC00010F0E7F810BD000010B50446D0F8080562
:103ED00010F014F92268D2F8003E43F00103C2F852
:103EE000003E236A23B1034A136943F006031361BA
:103EF00010BD00BF00ED00E008B5D0F8080510F0D7
:103F000007F908BD08B5D0F8080510F033F908BD69
:103F100008B5D0F8080510F017F908BD08B5D0F8B5
:103F2000080510F03DF908BD08B5D0F8080510F0F7
:103F300039F908BD02780AB10020704710B5034670
:103F40001548C0F80835C3F8C8024FF0A043036015
:103F5000042343600222C260002303618261C361C3
:103F600003624362C362036302F0BEF880B90A4C85
:103F70008021204602F0B6FE40220021204602F0B9
:103F80008BFE80220121204602F086FE002010BD1B
:103F9000FEF748FDEBE700BF70590020D0F8C832AB
:103FA00011F0800F08D101F07F0101EBC10103EB9B
:103FB000810393F87E02704701F07F0101EBC1019C
:103FC00003EB810393F83E00704708B5D0F8C802B0
:103FD00002F0ADFA08BD00000048704750570020BD
:103FE0007047032805D8DFE800F00504020501202A
:103FF00070470320704708B5D0F8C80202F00BF9EB
:10400000FFF7EFFF08BD08B594461A466346D0F89F
:10401000C80202F0DFF9FFF7E4FF08BD08B5D0F8E9
:10402000C80202F01CFAFFF7DCFF08BD08B5D0F8A3
:10403000C80202F0B4FAFFF7D4FF08BD08B5D0F803
:10404000C80202F0F0FAFFF7CCFF08BD08B5D0F8BF
:10405000C80202F0ABF9FFF7C4FF08BD08B5D0F8FD
:10406000C80202F06DFAFFF7BCFF08BD08B5D0F832
:10407000C80202F02DFAFFF7B4FF08BD88B1CA6884
:1040800092B18A689AB10A69A2B10A6882604A68E4
:10409000C260CA6842618A6802610A69826100205E
:1040A00070474FF0FF3070474FF0FF3070474FF0D0
:1040B000FF3070474FF0FF30704770B582B0054653
:1040C000002301934468002C4AD1836803B19847C8
:1040D00020232B60002602E06FF0040601341F2C21
:1040E0000DD86B6901AA1921204698470028F3DBF7
:1040F000019B03F01F03A342F0D12C600026286827
:104100001F2826D8002E37D12B694FF400420021FA
:104110009847002833DB6B6901AA0021286898477B
:1041200000282FDBAB6998470446019B13F4004F2E
:1041300011D0AB699847001BB0F5FA7F0DD86B69B9
:1041400001AA0021286898470028EEDA6FF00406DB
:1041500001E06FF002067EB903E06FF00106FAE7B6
:104160000026AB6998470446AB699847031BB3F533
:10417000FA6FF9D901236B60304602B070BD6FF061
:104180000306F9E76FF00406F6E710B582B00446BF
:1041900000230193436901AA012100689847002880
:1041A00038DB636901AA012120689847002834DBC5
:1041B000019B13F0040F33D0636901AA002120682A
:1041C000984700282FDB019B13F4805F0CD103F488
:1041D0000452B2F5045F29D013F4005F28D113F420
:1041E000807F27D004201CE0636901AA1021206889
:1041F0009847002820DB019B13F4807F1FD003F039
:104200000603042B1DD0F3B1062B01D0052008E0D6
:10421000042006E06FF0040003E06FF0040000E00B
:10422000012002B010BD6FF00400FAE70220F8E7A9
:104230000320F6E70520F4E76FF00400F1E706201D
:10424000EFE70220EDE70320EBE70000002800F095
:10425000E08170B582B00446036813F0010F3BD0D3
:104260009F4B9B6803F00C03042B2CD09C4B9B684A
:1042700003F00C03082B21D06368B3F5803F4FD0C7
:10428000B3F5A02F52D0964B1A6822F480321A60F0
:104290001A6822F480221A606368002B50D001F063
:1042A00069F805468E4B1B6813F4003F14D101F0EA
:1042B00061F8401B6428F5D90320B1E1884B5B68A5
:1042C00013F4800FD8D0864B1B6813F4003F03D043
:1042D0006368002B00F09F81236813F0020F54D015
:1042E0007F4B9B6813F00C0F3ED07D4B9B6803F017
:1042F0000C03082B33D0E368002B68D0794B0122E4
:104300001A6001F037F80546754B1B6813F0020F71
:1043100054D101F02FF8401B0228F5D903207FE18A
:104320006F4A136843F480331360B5E76C4B1A6827
:1043300042F480221A601A6842F480321A60ABE7B5
:1043400001F018F80546664B1B6813F4003FC3D014
:1043500001F010F8401B6428F5D9032060E1604BA0
:104360005B6813F4800FC6D15D4B1B6813F0020F1E
:1043700003D0E368012B40F05081594A136823F0C1
:10438000F803216943EAC1031360236813F0080F9F
:1043900042D063696BB3534B0122C3F8802E00F007
:1043A000E9FF05464E4B5B6F13F0020F34D100F06E
:1043B000E1FF401B0228F5D9032031E1484A136888
:1043C00023F0F803216943EAC1031360DDE7454B9D
:1043D00000221A6000F0CEFF0546414B1B6813F027
:1043E000020FD2D000F0C6FF401B0228F5D90320EF
:1043F00016E13C4B0022C3F8802E00F0BBFF0546BF
:10440000374B5B6F13F0020F06D000F0B3FF401B79
:104410000228F5D9032003E1236813F0040F77D0B5
:104420002F4B1B6C13F0805F33D1002301932C4B77
:104430001A6C42F080521A641B6C03F08053019393
:10444000019B0125284B1B6813F4807F23D0A368B0
:10445000012B34D0052B38D0214B1A6F22F00102EA
:104460001A671A6F22F004021A67A368002B3DD066
:1044700000F080FF06461A4B1B6F13F0020F46D167
:1044800000F078FF801B41F288339842F3D9032073
:10449000C6E00025D6E7144A136843F4807313601E
:1044A00000F068FF0646104B1B6813F4807FCED1E6
:1044B00000F060FF801B0228F5D90320B0E0084A15
:1044C000136F43F001031367CFE7054B1A6F42F0F8
:1044D00004021A671A6F42F001021A67C5E700BFAB
:1044E00000380240000047420070004000F042FFE8
:1044F0000646524B1B6F13F0020F08D000F03AFF34
:10450000801B41F288339842F3D9032088E0EDB94B
:10451000A369002B00F08380484A926802F00C02E5
:10452000082A51D0022B17D0454B00221A6600F002
:1045300021FF0446414B1B6813F0007F42D000F07E
:1045400019FF001B0228F5D9032069E03B4A136CD0
:1045500023F080531364DBE7394B00221A6600F026
:1045600009FF0546354B1B6813F0007F06D000F0AD
:1045700001FF401B0228F5D9032051E0E369226ABC
:104580001343626A43EA8213A26A5208013A43EA79
:104590000243E26A43EA0263284A5360284B01223D
:1045A0001A6600F0E7FE0446244B1B6813F0007FF8
:1045B00006D100F0DFFE001B0228F5D903202FE012
:1045C00000202DE000202BE0012B2BD01B4B5B6843
:1045D00003F48001E269914226D103F03F02216A8F
:1045E0008A4223D1616A47F6C0721A40B2EB811F3A
:1045F0001ED103F44031A26A5208013AB1EB024FD6
:1046000018D103F07063E26AB3EB026F14D100209B
:1046100006E001207047012002E0012000E00020B8
:1046200002B070BD0120FBE70120F9E70120F7E7A8
:104630000120F5E70120F3E70120F1E7003802400F
:104640000000474208B5264B9B6803F00C03042B7F
:1046500041D0082B41D1224B5A6802F03F025B68DF
:1046600013F4800F12D01E4B5968C1F388111D48F6
:104670000023A1FB0001FEF70BF8194B5B68C3F3A5
:10468000014301335B00B0FBF3F008BD144B5868E5
:10469000C0F388104FEA401CBCEB000C6EEB0E0E12
:1046A0004FEA8E1343EA9C634FEA8C11B1EB0C0185
:1046B00063EB0E03DB0043EA5173C90011EB000CFE
:1046C00043F10003990200234FEA8C2041EA9C51F8
:1046D000FDF7DEFFD1E70348D7E70348D5E700BF82
:1046E0000038024040787D010024F400002800F0EA
:1046F0009B8070B50D4604464F4B1B6803F00703C3
:104700008B4208D2CBB24C4A1370136803F00703F4
:104710008B4240F08B80236813F0020F17D013F008
:10472000040F04D0454A936843F4E0539360236830
:1047300013F0080F04D0414A936843F46043936038
:104740003E4A936823F0F003A1680B43936023680B
:1047500013F0010F32D06368012B21D09A1E012A79
:1047600025D9364A126812F0020F61D033498A689F
:1047700022F0030213438B6000F0FCFD06462F4B32
:104780009B6803F00C036268B3EB820F16D000F055
:10479000F1FD801B41F288339842F0D9032042E0BA
:1047A000264A126812F4003FE0D101203BE0234A80
:1047B000126812F0007FD9D1012034E01E4B1B6833
:1047C00003F00703AB4207D9EAB21B4B1A701B6810
:1047D00003F00703AB422DD1236813F0040F06D07A
:1047E000164A936823F4E053E1680B43936023680F
:1047F00013F0080F07D0114A936823F4604321692E
:1048000043EAC1039360FFF71DFF0C4B9B68C3F3A2
:1048100003130B4AD35CD8400A4B18600A4B186844
:1048200000F05CFD002070BD012070470120FAE718
:104830000120F8E70120F6E7003C02400038024082
:10484000009A01085C000020DC000020014B186881
:10485000704700BF5C00002008B5FFF7F7FF044B6E
:104860009B68C3F38223034AD35CD84008BD00BFD2
:1048700000380240F899010808B5FFF7E7FF044B3C
:104880009B68C3F34233034AD35CD84008BD00BFE2
:1048900000380240F899010830B583B00446036837
:1048A00013F0050F06D1236813F0020F2ED100205C
:1048B00003B030BD4A4B00229A6600F05BFD05460E
:1048C000484B1B6813F0006F06D000F053FD431BEC
:1048D000022BF5D90320EBE76268A3681B0743EAC4
:1048E0008213404AC2F884303D4B01229A6600F0A0
:1048F00041FD05463B4B1B6813F0006FD3D100F020
:1049000039FD431B022BF5D90320D1E70023019386
:10491000344B1A6C42F080521A641B6C03F08053C3
:104920000193019B304A136843F48073136000F0D5
:1049300021FD05462C4B1B6813F4807F06D100F047
:1049400019FD431B022BF5D90320B1E7254B1B6F43
:1049500013F4407314D0E26802F440729A420FD00C
:10496000204B1A6F22F440721D490120C1F8400EFD
:104970000020C1F8400E1A671B6F13F0010F13D10E
:10498000E36803F44072B2F5407F1ED0154A936885
:1049900023F4F813936013490B6FE268C2F30B0220
:1049A00013430B67002083E700F0E4FC05460D4B42
:1049B0001B6F13F0020FE3D100F0DCFC401B41F24F
:1049C00088339842F3D9032072E706498A6822F4B3
:1049D000F81223F0704323F4407313438B60DAE73B
:1049E00000004742003802400070004000230F2BB7
:1049F00000F2E98070B582B065E085684FEA430E49
:104A0000032404FA0EF425EA0405CC6804FA0EF433
:104A10002C438460446824EA02044A68C2F300120A
:104A20009A40224342605CE0DC08083450F82420BD
:104A300003F00705AD004FF00F0E0EFA05FE22EA57
:104A40000E0E0A69AA4042EA0E0240F824205CE0F9
:104A5000072200E0002202FA0EF22A4302345A4DE5
:104A600045F82420594A94686FEA0C0224EA0C05A0
:104A70004E6816F4801F01D04CEA0405534CA56023
:104A8000E46802EA04054E6816F4001F01D04CEAFF
:104A900004054E4CE560646802EA04054E6816F4AD
:104AA000003F01D04CEA0405484C65602468224070
:104AB0004D6815F4803F01D04CEA0402434C22605B
:104AC00001330F2B7DD801229A400C6804EA020CB6
:104AD00032EA0404F4D14C6804F00304013C012CD4
:104AE0008BD94A6802F00302032A09D0C4685D002A
:104AF0000322AA4024EA02048A68AA402243C26030
:104B00004A6802F00302022A8ED004684FEA430E7C
:104B1000032202FA0EF224EA02044A6802F00302B7
:104B200002FA0EF2224302604A6812F4403FC7D0F4
:104B300000220192264A546C44F480445464526C1E
:104B400002F480420192019A9C08A51C1E4A52F868
:104B5000255003F0030E4FEA8E0E0F2202FA0EF2DA
:104B600025EA02051B4A90423FF474AF02F58062C9
:104B700090421AD002F58062904218D002F580620D
:104B8000904216D002F58062904214D002F5806205
:104B9000904212D002F58062904210D002F58062FD
:104BA00090423FF455AF082255E7012253E7022215
:104BB00051E703224FE704224DE705224BE7062287
:104BC00049E702B070BD704700380140003C014029
:104BD000003802400000024000230F2B00F28F80BB
:104BE000F0B52DE0072500E0002505FA0CF5A542FB
:104BF00069D004685D004FF0030C0CFA05FC24EA50
:104C00000C0404604FEAD30E0EF1080E50F82E404B
:104C100003F00706B6000F25B54024EA050440F866
:104C20002E40C46824EA0C04C460446824EA0202EA
:104C30004260826822EA0C02826001330F2B5DD849
:104C400001229A4002EA010632EA0104F5D14FEA54
:104C5000930E0EF102052A4C54F8254003F0030C84
:104C60004FEA8C0C0F2505FA0CF73C40254DA84265
:104C7000BAD005F58065A84219D005F58065A8422F
:104C800017D005F58065A84215D005F58065A842C6
:104C900013D005F58065A84211D005F58065A842BE
:104CA0000FD005F58065A8429CD008259DE7012519
:104CB0009BE7022599E7032597E7042595E7052556
:104CC00093E7062591E7104C256825EA060525603F
:104CD000656825EA06056560E56825EA0605E5607C
:104CE000A56825EA0605A560054E0EF1020456F8F2
:104CF000245025EA070546F824507AE7F0BD7047AE
:104D00000038014000000240003C014003691942A4
:104D100001D001207047002070470AB181617047BF
:104D200009048161704730B405682C6824F480243C
:104D30002C60046863608368402B05D00368996029
:104D40000368DA6030BC704703689A600368D96012
:104D5000F8E7000010B40368D9B210390A4AA2FB80
:104D600001421209094CA25CC2655F2907D96FF3A1
:104D7000090304338365806D5DF8044B70476FF35E
:104D800009038365F7E700BFABAAAAAA209A010826
:104D9000836A826992B9012B0AD0022B02D00BB12F
:104DA00000207047C36A13F0807F28D1002070472D
:104DB000C36AB3F1C07F24D000207047B2F5005F12
:104DC00009D0022B25D9032B25D1C36A13F0807F8C
:104DD00023D100207047032B03D8DFE803F014042D
:104DE000140A00207047C36A13F0807F0DD10020A1
:104DF0007047C36AB3F1C07F09D00020704701201B
:104E00007047012070470120704701207047012042
:104E10007047012070470020704701207047000054
:104E200070B5044600F0A6FA002C5BD005460223BC
:104E300084F83530002384F834302268136823F076
:104E40000103136023681A6812F0010F0AD000F002
:104E500091FA431B052BF5D920236365032084F8C1
:104E6000350070BD1A68204911406268A06802438D
:104E7000E06802432069024360690243A06902437B
:104E8000E0690243206A02430A43616A04291ED092
:104E90001A602668756925F00705636A1D43042BAF
:104EA00007D1A36A1D43E36A1BB12046FFF770FFD9
:104EB00090B975612046FFF74DFFE26D3F239340A7
:104EC000836000206065012384F83530C9E7E16A1A
:104ED000206B01430A43DBE740236365012084F82C
:104EE0003500BEE70120BCE73F8010F038B504462E
:104EF000856D90F8340001282AD0012084F8340010
:104F000094F83500012804D0002384F834300220BE
:104F100038BD022084F83500002060652046FFF788
:104F200002FFE26D3F239340AB602268136843F0B9
:104F300016031360236C23B12268136843F008033F
:104F400013602268136843F0010313600020DFE759
:104F50000220DDE770B50446866D00F00BFA94F888
:104F60003530022B06D080236365002384F834306B
:104F7000012070BD05462268136823F016031360F4
:104F80002268536923F080035361236CE3B12268E4
:104F9000136823F0080313602268136823F00103E9
:104FA000136023681B6813F0010F11D000F0E2F9C1
:104FB000431B052BF5D920236365032084F83500B6
:104FC000002384F83430D4E7A36C002BDFD1E3E76F
:104FD000E26D3F239340B360012384F83530002015
:104FE00084F83400C5E790F83530022B03D08023D5
:104FF000436501207047052380F835300268136847
:1050000023F001031360002070470000F0B583B067
:10501000044600230193724B1D68724BA3FB0535B8
:10502000AD0A876D3E68C26D08239340334210D0AD
:1050300003681A6812F0040F0BD01A6822F00402F9
:105040001A60C26D08239340BB60436D43F00103B7
:105050004365E26D01239340334209D022685269CF
:1050600012F0800F04D0BB60636D43F002036365F0
:10507000E26D04239340334209D02268126812F093
:10508000020F04D0BB60636D43F004036365E26DFF
:1050900010239340334224D02268126812F0080F84
:1050A0001FD0BB6023681A6812F4802F0DD01B68D4
:1050B00013F4002F04D1236C9BB12046984710E0D5
:1050C000A36C73B1204698470BE01A6812F4807FF6
:1050D00003D11A6822F008021A60236C0BB1204633
:1050E0009847E26D20239340334254D022681268DF
:1050F00012F0100F4FD0BB6094F83530052B0ED056
:1051000023681A6812F4802F33D01B6813F4002F21
:105110002AD1636C002B3ED0204698473BE02268A2
:10512000136823F0160313602268536923F0800389
:105130005361236CA3B12268136823F00803136042
:10514000E26D3F239340BB60012384F83530002398
:1051500084F83430236D002B3FD0204698473CE044
:10516000A36C002BE7D1EBE7E36BA3B12046984794
:1051700011E01A6812F4807F09D11A6822F0100237
:105180001A60012384F83530002384F83430E36B4F
:105190000BB120469847636DFBB1636D13F0010FAF
:1051A00017D0052384F835302268136823F00103F3
:1051B0001360019B01330193AB4204D823681B6841
:1051C00013F0010FF5D1012384F83530002384F862
:1051D0003430E36C0BB12046984703B0F0BD00BFFC
:1051E0005C000020B5814E1B406D7047002808DB35
:1051F0000901C9B200F1604000F5614080F8001378
:10520000704700F00F000901C9B2014B19547047F3
:1052100014ED00E000B500F00700C0F1070CBCF190
:10522000040F28BF4FF0040C031D062B0FD9C31E1B
:105230004FF0FF3E0EFA0CF021EA000199400EFA01
:1052400003FE22EA0E0241EA02005DF804FB00239D
:10525000EEE70000074AD36823F4E0631B041B0C4D
:10526000000200F4E060034343F0BF6343F4003303
:10527000D360704700ED00E010B50446054BD868D8
:10528000C0F30220FFF7C6FF01462046FFF7AEFF3E
:1052900010BD00BF00ED00E0002807DB00F01F029A
:1052A000400901239340024A42F82030704700BF72
:1052B00000E100E00138B0F1807F0BD24FF0E02335
:1052C0005861054AF02182F82310002098610722D6
:1052D0001A6170470120704700ED00E010B50446E8
:1052E0000E4B1A784FF47A73B3FBF2F30C4A106842
:1052F000B0FBF3F0FFF7DEFF68B90F2C01D90120F6
:105300000AE0002221464FF0FF30FFF7B5FF054BC2
:105310001C60002000E0012010BD00BFD80000206C
:105320005C000020DC00002008B50B4B1A6842F43A
:1053300000721A601A6842F480621A601A6842F4B5
:1053400080721A600320FFF785FF0F20FFF7C6FF6A
:10535000FEF738F9002008BD003C0240034A1168FE
:10536000034B1B780B441360704700BF7C5E00202A
:10537000D8000020014B1868704700BF7C5E0020F9
:1053800038B50446FFF7F6FF0546B4F1FF3F02D0FB
:10539000044B1B781C44FFF7EDFF401BA042FAD3DF
:1053A00038BD00BFD80000202DE9F04182B007468B
:1053B00000230193D0F8688008F1120350F82340CD
:1053C000C56E012613E001A8FEF7C0FB019B13B1D7
:1053D0002362A36010E000260EE04FF48C4363606C
:1053E00011E003F1120257F82240013D9846BDB189
:1053F000B6B1236A002BE6D0002EF8D0BB6D002B8F
:10540000EBD10E4B6360BFF35F8F236843F0004323
:10541000236008F10103032BE3D9A8F10303E0E7BC
:10542000FB6EAB4207D03B6803F5805300229A60C5
:10543000C7F86880FD6602B0BDE8F08100460080D4
:105440005079137943EA002307480B50D0789378BA
:105450001B0443EA0063507843EA002312781343A5
:10546000024A8B50704700BF408002404480024097
:1054700030B4002208E0C468DC6051F80C3043F41A
:10548000400341F80C300132032A1FD8C16802EBF7
:1054900082034FEAC30C01EBC303002441F80C4024
:1054A0005C609C60DC60941D40F8243051F80C4036
:1054B00044F4801441F80C40022ADCD8541C04EB5C
:1054C0008404C56805EBC404DC60D6E7002383626E
:1054D000C268036803F580531A6130BC704700B599
:1054E0004FF0000E03E00269DA600EF1010EBEF12A
:1054F000030F29D801690EEB8E034FEAC30C01EBB1
:10550000C303002241F80C205A609A60DA601A62E4
:105510005A624FF0004241F80C204FF48C425A601E
:105520005A6822F000425A600EF1120240F822300E
:10553000BEF1020FD7D801690EF1010202EB82021F
:1055400001EBC201D960D0E70023C365036683661F
:10555000C36683650269036803F58053DA605DF80A
:1055600004FBF0B5856A00EB85039B698C681E68B7
:10557000002EC0F2AB802E1D00EB8606F669002ED1
:1055800040F0A68026689E605E686FF30C06676830
:105590003E435E600E6816F0010F05D01E6826F4CB
:1055A00040064F693E431E600E6816F0200F05D07E
:1055B0001E6826F040660F693E431E60096811F0C0
:1055C000040F03D0196841F080011960196841F097
:1055D00080511960BFF35F8F196841F00041196075
:1055E0002F4600264FF0010E27E0196821F0804178
:1055F00019602EE000EB8C039B69196821F0805143
:105600001960196800292CDB0CF1040100EB810101
:10561000C96931BB0EF1010EA4682168996059680F
:105620006FF30C016768394359600136BFF35F8F30
:10563000196841F0004119606746A16851B31968C3
:1056400021F000511960002ACFD0196841F0804143
:10565000196007F1010CBCF1030FCBD9A7F1030CC2
:10566000C8E700EB85039969002204E000EB8301A1
:10567000896901321D4672450AD2BFF35F8F0B68FC
:1056800023F000430B606B1C032BEFD9EB1EEDE7FF
:105690000220F0BDAAB11A6842F080421A601A686E
:1056A00042F000521A60C26B3B1D00EB8303DA61CB
:1056B000876272B6036C33440133036462B6002020
:1056C000E7E71A6822F080421A60E8E70220E0E784
:1056D0000220DEE770B505460C46026813683B49B8
:1056E0001940237C002B60D14FF40003607C00281C
:1056F0005DD14FF480000343A0680343E07F43EA99
:10570000004360690343A07F002852D14FF400504A
:105710000343207F43EA0033A0690343207943EA2F
:10572000802394F82000002845D14FF400700343F3
:10573000E07B43EAC013606A034394F8280043EA1D
:1057400000130B4313602B681E680120FFF718FE3F
:105750002B681E6029688A6922F0BE021204120CAE
:10576000A36C1B0494F84C0038BB80200343206DCD
:10577000034394F85500012821D00020034394F8F6
:10578000560001281DD00020034394F8540001283E
:1057900019D00020034313438B612B689C690120BF
:1057A000FFF7EEFD2B689C6170BD00239EE7002093
:1057B000A1E70020ACE70020B9E70020D6E70820E9
:1057C000DCE70420E0E70220E4E700BF0F8120FFD0
:1057D00070B505460C46026802F580539B692B495B
:1057E0001940237B002B4DD14FF08063607B43EA4F
:1057F0004063607F002847D14FF480100343A07BB3
:1058000043EA405360690343207F43EAC013A07F0B
:1058100043EA8013206A034394F8240043EA800398
:105820000B4302F5805293612B6803F580539E6908
:105830000120FFF7A5FD2B6803F580539E612279B7
:10584000A36843EA4263A26913432269134394F8AD
:10585000252043EAC213A26A43EA82032268134363
:105860002A6843F4000302F5805213602B6803F5A5
:1058700080531C680120FFF783FD2B6803F58053DC
:105880001C6070BD0023B1E70020B7E7233FDEF8BE
:1058900070B5A4B0064601258DF83C508DF83D50FA
:1058A00000240D948DF84B408DF84A508DF84840F7
:1058B0008DF830508DF84C408DF83B4014948DF8A5
:1058C00054401D948DF878401F948DF882408DF8D7
:1058D00080404FF4804310934FF4006311938DF890
:1058E00081400BA9FFF7F6FE8DF80C508DF80D5096
:1058F0008DF81D508DF80E5005948DF81C408DF8D4
:105900001E4008948DF824508DF804504FF48033D5
:1059100002934FF4800306934FF4005304938DF8E1
:1059200025500A94009469463046FFF751FF24B091
:1059300070BD10B582B0044600230193036803F5DF
:1059400080539A6942F480129A61036803F5805388
:105950009B6901930120FFF713FD2368019A03F56A
:1059600080539A6102B010BD002857D030B583B083
:105970000446D0F88430002B34D000230193284B08
:105980005A6C42F480425A645B6C03F48043019386
:10599000019B244B5A6822F400025A605A68A1689D
:1059A0000A435A605B68236803F580531A6842F023
:1059B00001021A60FFF7DEFC0546236803F58053F9
:1059C0001B6813F0010F13D0FFF7D4FC401BB0F598
:1059D000FA7FF2D90423C4F88830E023C4F8843075
:1059E000012019E02323C0F88430FDF72DFFC4E720
:1059F0002046FFF74DFF2046FFF73AFD2046FFF710
:105A00006EFD626800212046FFF71AFD0020C4F8F1
:105A100088001023C4F8843003B030BD01207047E3
:105A20000038024000380140D0F88430102B01D0FB
:105A30000120704770B504462325C0F88450042324
:105A4000C366FFF7B1FC2268136843F008031360D4
:105A500023681E680120FFF793FC23681E602268FC
:105A6000136843F00403136023681E680120FFF7E6
:105A700087FC23681E602046FFF75BFF236803F561
:105A800080539A6942F400529A61236803F5805367
:105A90009A6942F002029A61C4F88450002070BDF5
:105AA00038B5D0F88430232B01D0012038BD04460E
:105AB000C0F88430036803F580539A6922F40052D9
:105AC0009A61036803F580539A6922F002029A6191
:105AD0000268136823F00403136003681D68012043
:105AE000FFF74EFC23681D602046FFF722FF226867
:105AF000136823F00803136023681D680120FFF773
:105B00003FFC23681D601023C4F884300020CDE7DB
